:100000000C9458000C9480000C9480000C94800098
:100010000C9480000C9480000C9480000C94800060
:100020000C9480000C9480000C9480000C94800050
:100030000C9480000C9480000C9480000C94800040
:100040000C94780A0C9480000C94460A0C94200AB4
:100050000C9480000C9480000C9480000C94800020
:100060000C94C20A0C9480000000000025002800B7
:100070002B00040404040404040402020202020229
:10008000030303030303010204081020408001025C
:1000900004081020010204081020000000080002DB
:1000A0000100000304070000000000000000E10B55
:1000B00011241FBECFEFD8E0DEBFCDBF12E0A0E01D
:1000C000B1E0EAE0F0E202C005900D92A637B10778
:1000D000D9F724E0A6E7B2E001C01D92A13DB20726
:1000E000E1F710E0C8E5D0E004C02197FE010E94CE
:1000F000D80EC735D107C9F70E949B0C0C9403108A
:100100000C94000008950895AF92BF92CF92DF92B1
:10011000EF92FF920F931F93CF93DF936C017B01BC
:100120008B01040F151FEB015E01AE18BF08C0174D
:10013000D10759F06991D601ED91FC910190F081C0
:10014000E02DC6010995892B79F7C501DF91CF9183
:100150001F910F91FF90EF90DF90CF90BF90AF90E5
:100160000895FC01538D448D252F30E0842F90E0BD
:10017000821B930B541710F0CF96089501970895A2
:10018000FC01918D828D981761F0A28DAE0FBF2F6B
:10019000B11D5D968C91928D9F5F9F73928F90E0C1
:1001A00008958FEF9FEF0895FC01918D828D981730
:1001B00031F0828DE80FF11D858D90E008958FEF6D
:1001C0009FEF0895FC01918D228D892F90E0805C36
:1001D0009F4F821B91098F739927089586E294E0BF
:1001E0000E94E20021E0892B09F420E0822F08958B
:1001F00080E090E0892B29F00E94EE0081110C94A0
:1002000000000895FC01A48DA80FB92FB11DA35AB9
:10021000BF4F2C91848D90E001968F739927848F26
:10022000A689B7892C93A089B1898C918370806449
:100230008C93938D848D981306C00288F389E02DEA
:1002400080818F7D80830895EF92FF920F931F939B
:10025000CF93DF93EC0181E0888F9B8D8C8D981379
:100260001AC0E889F989808185FF15C09FB7F89485
:10027000EE89FF896083E889F989808183708064D1
:1002800080839FBF81E090E0DF91CF911F910F911C
:10029000FF90EF900895F62E0B8D10E00F5F1F4F2B
:1002A0000F731127E02E8C8D8E110CC00FB607FC3A
:1002B000FACFE889F989808185FFF5CFCE010E94C8
:1002C0000201F1CFEB8DEC0FFD2FF11DE35AFF4F33
:1002D000F0829FB7F8940B8FEA89FB898081806256
:1002E000CFCFCF93DF93EC01888D8823B9F0AA8913
:1002F000BB89E889F9898C9185FD03C0808186FDE1
:100300000DC00FB607FCF7CF8C9185FFF2CF80812F
:1003100085FFEDCFCE010E940201E9CFDF91CF91A1
:10032000089590E0FC01E656FF4F2491FC01EA5746
:10033000FF4F3491FC01EE58FF4FE491EE23C9F0DA
:10034000222339F0233001F1A8F4213019F12230B1
:1003500029F1F0E0EE0FFF1FE859FF4FA591B4918E
:100360008FB7F894EC91611126C030953E233C93F1
:100370008FBF08952730A9F02830C9F0243049F7FD
:10038000809180008F7D03C0809180008F77809363
:100390008000DFCF84B58F7784BDDBCF84B58F7DC0
:1003A000FBCF8091B0008F778093B000D2CF809147
:1003B000B0008F7DF9CF3E2BDACF8230910538F037
:1003C000880F991F880F991F05970197F1F70895D6
:1003D0003FB7F8948091E0029091E102A091E2028F
:1003E000B091E30226B5A89B05C02F3F19F00196F6
:1003F000A11DB11D3FBFBA2FA92F982F8827BC017F
:10040000CD01620F711D811D911D42E0660F771FA6
:10041000881F991F4A95D1F708958FB7F894809156
:10042000DA028FBF0895FC0183858F3F11F00C9491
:1004300091010895AF92BF92CF92DF92EF92FF9217
:100440000F931F93CF93DF93EC0188819981892BC0
:1004500089F06EBD0DB407FEFDCFBEB48B2DDF91CC
:10046000CF911F910F91FF90EF90DF90CF90BF90B1
:10047000AF9008958885998511E0892B09F010E8DF
:10048000AA24A394862F812309F0A12C062F2C8166
:100490003D814E815F8160E271EA87E090E00E94D9
:1004A000B60EF22EB02EE12CC22ED12CFF2019F068
:1004B000C6010E94DD018A85877F09F042C08D85D3
:1004C0008F3F89F0902F912381E009F480E08A1515
:1004D00051F0EF85F8898F89992369F19081892BF3
:1004E0008083AA24A394E989FA898081998D892B34
:1004F0008083FF2019F0C6010E94DD018E858F3FA9
:1005000039F0EB89FC898081988D892309F0E12AF3
:10051000E989FA899081898D8095892380838E85E8
:100520008F3F09F0BE2C88859985892BB9F5110F6D
:100530001111BCCF93CF9081809589238083A12C0A
:10054000D2CFE989FA898081998D892B8083FF2018
:1005500019F0C6010E94DD018D858F3F49F0EF85BE
:10056000F8898F89902F9123A9F09081892B80831E
:10057000E989FA899081898D8095892380838E8588
:100580008F3F69F2EB89FC898081988D892339F24C
:10059000E12AC5CF908180958923E9CF1695C8CFF0
:1005A0008CBD9DBD08958F929F92AF92BF92CF92C6
:1005B000DF92EF92FF920F931F93CF93DF93EC01A3
:1005C0004B016A01B22EA32E88819981892B31F0CB
:1005D000EA81FB81808191810E94D00270E060E01D
:1005E000CE010E9413027401C80CD91CEC14FD0446
:1005F00079F4EB2CFA2C0E0D1F1DE016F10679F0A4
:100600006FEFCE010E941A02F70181937F01F5CFAF
:10061000F70161917F01CE010E941A02E7CF61E0EC
:1006200070E0CE010E94130281E0DF91CF911F9113
:100630000F91FF90EF90DF90CF90BF90AF909F9081
:100640008F9008958F929F92AF92BF92CF92DF9238
:10065000EF92FF920F931F93CF93DF93EC01B62E8F
:10066000A72E6A01490188819981892B31F0EA819D
:10067000FB81808191810E94D00270E060E0CE0118
:100680000E9413027401080D191DE016F10671F4A1
:100690000B2D1A2DC00ED11E0C151D0571F0F80181
:1006A00061918F01CE010E941A02F6CFF70161918C
:1006B0007F01CE010E941A02E8CF61E070E0CE0116
:1006C0000E94130281E0DF91CF911F910F91FF9063
:1006D000EF90DF90CF90BF90AF909F908F90089554
:1006E00020919702260F3327331F21323105ECF476
:1006F00020912003FC0190E080E0243069F082E04A
:100700000895A09197022191AC0149585D4FA40F23
:10071000B52FB11D2C930196861798F380919702FF
:10072000680F6093970280E0089581E00895109229
:10073000200381E080931F031092FA0261E082E1BE
:100740000E94910161E083E10E949101E9EBF0E0F8
:1007500080818E7F808380818D7F808388E48093F9
:10076000B80085E48093BC000895CF93DF9391E0B7
:10077000909376028823B9F0C091B800D091BA0066
:100780008091BC008A7B8093BC0060E082E10E9483
:10079000910160E083E10E9491010E949703D09350
:1007A000BA00C093B800DF91CF9108958F929F92C5
:1007B000AF92BF92CF92DF92EF92FF920F931F936F
:1007C000CF93DF93D0914903D13208F0D7C0182FCF
:1007D000C09148030E94E8016B017C0180912003D5
:1007E00081116BC082E08093200310931F038FEF71
:1007F00080931E0310921D03D0931C03A8E2B3E064
:10080000ECEFF2E080E0D81391C01092FB028091EF
:10081000FB02CC0FC82BC093FB028091FA028130FF
:1008200009F088C01092FA020E94E8016B017C0175
:100830008091FB028093BB0080912203909123035F
:10084000A0912403B0912503892B8A2B8B2BA1F037
:100850000E94E801009122031091230320912403B8
:10086000309125036C197D098E099F09061717071A
:100870002807390708F442C08091BC0083FDD8CF17
:1008800085EC8093BC000E94E8016B017C018091A3
:100890002003823009F450C080911E038F3F09F479
:1008A0006FC080911E03803209F46CC080911E03DA
:1008B000803309F469C084E026C0809122039091BE
:1008C0002303A0912403B0912503892B8A2B8B2B22
:1008D00009F484CF0E94E8018090220390902303C2
:1008E000A0902403B09025036C197D098E099F09FF
:1008F00086169706A806B90608F070CF80912103E6
:100900000E94B50385E010922703109249031092CC
:100910002603DF91CF911F910F91FF90EF90DF9011
:10092000CF90BF90AF909F908F9008959D9191939D
:100930008F5F69CF85EEA5CF80912203909123032D
:10094000A0912403B0912503892B8A2B8B2B09F4CA
:100950009ECF0E94E8010091220310912303209171
:100960002403309125036C197D098E099F09061710
:1009700017072807390708F08ACFC0CF81E0C3CF17
:1009800080E0C1CF82E0BFCF83E0BDCF1F93CF9384
:10099000DF93EA01122FDC0111968D919C91DC010D
:1009A000ED91FC910280F381E02D0995C817D907DC
:1009B00029F4812F0E94D60391E0811190E0892FC4
:1009C000DF91CF911F910895AF92BF92CF92DF92A6
:1009D000EF92FF920F931F93CF93DF9300D0CDB789
:1009E000DEB7FC0120852530C0F54787508B618B31
:1009F000728B90E080E0E22EF12C8E159F059CF426
:100A00002285211108C0DF01A80FB91F1B964C9346
:100A1000019640E0F2CFD701A81BB90BAE0FBF1F64
:100A20001A964C93F5CF6F018BE0C80ED11C9681BE
:100A3000878199838A83A080B180A114B10409F4CD
:100A400040C0018510E098012E0D3F1DD501149680
:100A50008D919C918217930710F480E016C0F501E8
:100A600081819281208131E03093260320934803D5
:100A700010922703109249030115110599F421E002
:100A8000A701B601C5010E94C6040F900F90DF9127
:100A9000CF911F910F91FF90EF90DF90CF90BF907B
:100AA000AF900895DC01ED91FC910280F381E02D7F
:100AB000A801BE016F5F7F4F09950817190769F6F6
:100AC000DECFA281B381109741F224813581018567
:100AD00010E02330310571F48E7F89839A830F5F94
:100AE0001F4F9E012F5F3F4FA701B601CD010E940E
:100AF0002203CBCF2115310519F49F779983F1CFCC
:100B00002230310511F49068F9CF2130310549F7D1
:100B10009F779064F3CFCF93DF93EC018B81882391
:100B2000A1F0888191E0909326038093480310926E
:100B300027031092490381E00E94D60391E08111BE
:100B400090E0892FDF91CF9108951092F9021092D1
:100B5000F80210922703109249030E94970382E83B
:100B600090E09093F5028093F40283E890E09093F4
:100B7000F7028093F60281E08B83CE010E948B0501
:100B8000982F8111CECFDDCF0895E091F9028091A9
:100B9000F802E81730F4F0E0E654FD4F808190E071
:100BA00008958FEF9FEF08959091F9028091F802D8
:100BB0002FEF3FEF981748F4E92FF0E0E654FD4F90
:100BC000208130E09F5F9093F902C90108958091E0
:100BD000F8029091F902891B990B0895CF92DF9248
:100BE000EF92FF920F931F93CF93DF937C01CB0182
:100BF0008A0120912603222389F0EB016B01C40EA8
:100C0000D51ECC15DD0569F06991D701ED91FC91F8
:100C10000190F081E02DC7010995F3CF642F0E9468
:100C20007003C801DF91CF911F910F91FF90EF905A
:100C3000DF90CF900895CF93DF931F92CDB7DEB7AB
:100C40006983209126032223F9F020914903203261
:100C500058F021E030E0FC013383228390E080E013
:100C60000F90DF91CF91089580912703E82FF0E056
:100C7000E85DFC4F998190838F5F80932703809379
:100C8000490381E090E0ECCF61E0CE0101960E9443
:100C90007003F7CF90E080E00895DC018D919C9186
:100CA000DC01ED91FC910190F081E02D0994CF934E
:100CB000DF9341504031D8F4D62FC82F642F60699C
:100CC00080918003909181030E944D066C2F6F7775
:100CD00080918003909181030E944D066D2F809139
:100CE000800390918103DF91CF910C944D06DF91A9
:100CF000CF910895CF93DF93FC0101900020E9F795
:100D00003197AF01481B590BBC0186E294E00E9469
:100D10008400EC0142E050E06AE871E086E294E091
:100D20000E9484008C0F9D1FDF91CF9108952F9218
:100D30003F924F925F926F927F928F929F92AF926B
:100D4000BF92CF92DF92EF92FF920F931F93CF93B8
:100D5000DF9300D000D01F92CDB7DEB77C01DC015D
:100D600018960C914C01BBE08B0E911CFC019681F6
:100D7000878199838A83208031802114310409F48A
:100D800024C1418550E0D10114968D919C91159715
:100D90008417950708F46CC18C9191E09093260319
:100DA00080934803109227031092490320E0BE016C
:100DB0006F5F7F4FC1010E94C604882309F458C1A8
:100DC000E02FF0E0FC83EB83B12CA12C01E08B81C0
:100DD0009C81A816B90608F018C1D10114968D910E
:100DE0009C91CB80DC80CA18DB088C159D0508F42B
:100DF0006C01F101F081FD830E94E8012B013C01AF
:100E000080912003811172C01C2D113208F010E274
:100E10000093200321E08B819C818C199D09A816E9
:100E2000B90608F420E020931F038FEF80931E0380
:100E300010921D03810F80931C030093FB0290917D
:100E4000FB028D81880F892B8093FB028091FA022F
:100E5000813009F091C01092FA020E94E8012B0142
:100E60003C018091FB028093BB0080912203909112
:100E70002303A0912403B0912503892B8A2B8B2B6C
:100E8000A1F00E94E80120912203309123034091B8
:100E900024035091250364197509860997092617BB
:100EA00037074807590708F442C08091BC0083FD0A
:100EB000D8CF95EC9093BC000E94E8012B013C0137
:100EC00080912003813009F45BC080911D0381175C
:100ED00010F410911D03ECEFF2E0AAEBB2E080E019
:100EE000811751F191919D938F5FFACF80912203E9
:100EF00090912303A0912403B0912503892B8A2B81
:100F00008B2B09F47DCF0E94E801209122033091C0
:100F10002303409124035091250364197509860920
:100F20009709261737074807590708F069CF8091B6
:100F300021030E94B50310E01092F9021093F80209
:100F40001C151D0409F094C034016A0C7B1C23019C
:100F5000C201861997098C159D05A0F5F1018181C3
:100F60009281DC01ED91FC910284F385E02D0995DD
:100F7000F20181932F01ECCFA5EEA093BC009CCF92
:100F80008091220390912303A0912403B091250323
:100F9000892B8A2B8B2B09F493CF0E94E801209197
:100FA00022033091230340912403509125036419B7
:100FB000750986099709261737074807590708F062
:100FC0007FCFB5CFAC0CBD1C02CFD7010280F3811F
:100FD000E02D309709F44CC014962D913C91159753
:100FE00010E019964C9150E02330310561F5816095
:100FF00089839A834F5F5F4F9401BE016F5F7F4F7C
:10100000CF010E94D302882399F1F701408550E077
:1010100030E020E060E070E0CB01241735075CF59C
:10102000982F872F762F6627D7011A96EC91E1111A
:101030001AC0FA01E21BF30BEE0DFF1DE2856E2BC9
:101040002F5F3F4FEACF2115310519F4906899833E
:10105000D3CF2230310511F49F77F9CF21303105FC
:1010600059F6906CF4CFF701E20FF31FE385E7CF59
:101070006FEF7FEFCB010F900F900F900F900F90BD
:10108000DF91CF911F910F91FF90EF90DF90CF9064
:10109000BF90AF909F908F907F906F905F904F9098
:1010A0003F902F9008959F92AF92BF92CF92DF9280
:1010B000EF92FF920F931F93CF93DF93CDB7DEB7DD
:1010C000A6970FB6F894DEBF0FBECDBF5C01162FFA
:1010D000942EFC0180819181188A198A1A8A1B8AB0
:1010E0009A8389831C821B8281E08A872EE530E007
:1010F00038872F831B868987CE0101960E94970629
:101100006B017C011E3509F445C08DE8810F8830E4
:1011100008F440C040E050E0BA01CE0101960E94C0
:10112000E40401E0F501808191811BA21CA21DA2B3
:101130001EA29D8B8C8B1F8A1E8A81E08D8F612F52
:1011400070E07B8F6A8F1E8E8C8F492D50E070E08F
:1011500060E0CE0144960E94E404002349F0B70108
:10116000A601552766277727CE0101960E94E40441
:10117000A6960FB6F894DEBF0FBECDBFDF91CF911C
:101180001F910F91FF90EF90DF90CF90BF90AF90A5
:101190009F90089500E0C6CF8F929F92AF92BF922A
:1011A000EF92FF920F931F93CF93DF93CDB7DEB7EC
:1011B00063970FB6F894DEBF0FBECDBF8C01B62E7D
:1011C000FC0180819181009711F00E947A0F86E0E6
:1011D00090E00E94DE0E7C01FC01B0828AE493E084
:1011E00092838183138280E290E095838483F80167
:1011F000F182E0821092F9021092F8021092270315
:10120000109249030E94970382E890E09093F502C0
:101210008093F40283E890E09093F7028093F602C3
:1012200081E0F7018383C7010E948B05E82E8111BD
:1012300013C0E12C8E2D63960FB6F894DEBF0FBE5F
:10124000CDBFDF91CF911F910F91FF90EF90BF9095
:10125000AF909F908F90089543E660E8C8010E9488
:1012600053080E94E8014B015C010E94E8016819E3
:1012700079098A099B09683E734081059105A8F3A5
:1012800040E06EE5C8010E945308F8018081918119
:10129000188A198A1A8A1B8A9A8389831C821B825C
:1012A00081E08A872DE530E038872F831B86898788
:1012B000CE0101960E94970681E4F82E643209F06F
:1012C000B8CF4CE06F2DC8010E94530861E06F0D4C
:1012D00046E0C8010E945308F394F39429E5F21202
:1012E000F0CF41E06BE2C8010E94530841E06CE29C
:1012F000C8010E9453084EE06DE2C8010E945308E5
:1013000040E06EE2C8010E94530841E06FE2C8016C
:101310000E94530845E060E3C8010E94530841E081
:1013200061E3C8010E94530840E062E3C8010E94E3
:10133000530840E063E3C8010E94530840E064E3BF
:10134000C8010E94530840E065E3C8010E945308A9
:1013500040E06BE5C8010E94530840E16CE5C8011C
:101360000E94530840E26DE5C8010E9453084CE812
:101370006EE5C8010E9453085DCFCF93DF93CDB7D0
:10138000DEB763970FB6F894DEBF0FBECDBFFC018A
:1013900080819181188A198A1A8A1B8A9A83898383
:1013A0001C821B8281E08A8718861F821B8682E04E
:1013B0008987CE0101960E949706CB019F706396A4
:1013C0000FB6F894DEBF0FBECDBFDF91CF91089569
:1013D00085ED8093BC008091220390912303A0911E
:1013E0002403B09125030796A11DB11D23E0B695F6
:1013F000A795979587952A95D1F72091BC0024FD54
:1014000003C01092200308954091220350912303BA
:101410006091240370912503452B462B472B69F3DC
:101420000097A105B10541F025E32A95F1F70000E9
:101430000197A109B109E1CF809121030C94B50373
:101440001F920F920FB60F9211242F933F934F9339
:101450005F936F937F938F939F93AF93BF93EF931C
:10146000FF9386E294E00E940201FF91EF91BF9109
:10147000AF919F918F917F916F915F914F913F912C
:101480002F910F900FBE0F901F9018951F920F92E3
:101490000FB60F9211242F938F939F93EF93FF9387
:1014A000E0913604F09137048081E0913C04F091A2
:1014B0003D0482FD1BC0908180913F048F5F8F733C
:1014C00020914004821741F0E0913F04F0E0EA5D92
:1014D000FB4F958F80933F04FF91EF919F918F91E8
:1014E0002F910F900FBE0F901F9018958081F4CF11
:1014F0001F920F920FB60F9211242F933F938F9349
:101500009F93AF93BF938091DC029091DD02A091F5
:10151000DE02B091DF023091DB0223E0230F2D3792
:1015200058F50196A11DB11D2093DB028093DC02CA
:101530009093DD02A093DE02B093DF028091E0027F
:101540009091E102A091E202B091E3020196A11D07
:10155000B11D8093E0029093E102A093E202B09368
:10156000E302BF91AF919F918F913F912F910F9087
:101570000FBE0F901F90189526E8230F0296A11D0D
:10158000B11DD2CF1F920F920FB60F9211242F933D
:101590003F934F935F936F937F938F939F93AF93FB
:1015A000BF93EF93FF938091B900887F803609F451
:1015B0004AC0F0F5883209F4A7C018F5803109F463
:1015C0009BC0B8F4882309F4F9C0883009F494C0AA
:1015D000FF91EF91BF91AF919F918F917F916F910B
:1015E0005F914F913F912F910F900FBE0F901F90E1
:1015F0001895883109F488C0803251F780931E0312
:1016000014C0803409F49DC040F48033B9F38833AA
:10161000F9F680931E0385ECB0C0803509F485C0CF
:10162000883509F496C0883499F60E94E809D0CF2D
:10163000883909F48CC038F5883729F050F4883699
:1016400011F0803729F683E0809320031092B902CD
:1016500057C0883809F47BC0803919F0803809F008
:10166000B7CF8091B902803208F071C0E091B90221
:1016700081E08E0F8093B9028091BB00F0E0E756C5
:10168000FD4F80833DC0803B39F0E0F4803A09F49F
:1016900079C0883A09F09CCF84E0809320031092AF
:1016A000980210929702E091F402F091F5020995E8
:1016B0008091970281110FC081E080939702109270
:1016C000770209C0803C09F4A6CF883C09F4A3CF77
:1016D000883B09F07DCFE091980281E08E0F8093E6
:1016E0009802F0E0E958FD4F80818093BB00909113
:1016F00098028091970229C08091FB028093BB00E1
:1017000085EC8093BC0064CF90911D0380911C03F5
:10171000981758F5E0911D0381E08E0F80931D030B
:10172000F0E0E450FD4F8081E9CFE0911D0381E0BE
:101730008E0F80931D038091BB00F0E0E450FD4FBD
:10174000808390911D0380911C039817C8F285E84F
:10175000D8CFE0911D0381E08E0F80931D0380910F
:10176000BB00F0E0E450FD4F808380911F038111A6
:101770005CCF81E08093FA0284EA8093BC001092EF
:10178000200326CF85EC8093BC001092200380912B
:10179000B902803230F4E091B902F0E0E756FD4F33
:1017A00010826091B90270E0E091F602F091F702C8
:1017B00089E992E009951092B9020ACF10921E03AE
:1017C00034CFE6E2F4E01382128248EE53E060E0A8
:1017D00070E044835583668377838AE691E0918342
:1017E000808385EC90E09587848784EC90E09787F0
:1017F000868780EC90E0918B808B81EC90E0938BDE
:10180000828B82EC90E0958B848B86EC90E0978BBA
:10181000868B118E128E138E148EAAE4B3E013966B
:101820001C921E92129714964D935D936D937C9328
:1018300017978CE791E08D939C931092CC041092B3
:10184000CB041092CA041092C9041092C8041092DA
:10185000C7041092C6041092C504F093C404E09328
:10186000C304E6E5F3E0118210821382128215822E
:1018700014821782168211861086138612861586A8
:10188000148617861686118A108A138A128A158A78
:10189000148A178A168A118E108E138E128E158E48
:1018A000148E178E168E11A210A213A212A215A2C8
:1018B00014A217A216A211A610A683EC94E093A777
:1018C00082A714A615A616A613AA12AA15AA14AAC8
:1018D0008FEF9FEF97AB86AB91AF80AF83E08093A4
:1018E000900313AE14AE15AE16AE10921504E5E9D2
:1018F000F3E080E8DF011D928A95E9F71092180461
:101900001092190410921A0410921B0410921C04D5
:1019100010921D0410921E0410921F0410922004B5
:101920001092210410922204109223041092240495
:10193000109225040895789484B5826084BD84B59E
:10194000816084BD85B5826085BD85B5816085BDBA
:1019500080916E00816080936E0010928100809172
:1019600081008260809381008091810081608093FA
:101970008100809180008160809380008091B1001F
:1019800084608093B1008091B00081608093B0004A
:1019900080917A00846080937A0080917A008260DE
:1019A00080937A0080917A00816080937A008091A0
:1019B0007A00806880937A001092C100E09136042A
:1019C000F091370482E08083E0913204F091330497
:1019D0001082E0913404F091350480E1808310920C
:1019E0003E04E0913A04F0913B0486E08083E0916C
:1019F0003804F0913904808180618083E09138045B
:101A0000F0913904808188608083E0913804F091FE
:101A10003904808180688083E0913804F091390432
:101A200080818F7D80838DE891E00E947A066AE54F
:101A30008BEC94E00E94CC08811105C085E991E00F
:101A40000E947A06FFCF87EB91E00E947A066BE551
:101A500089EC94E00E94CC08811105C08EEC91E0E5
:101A60000E947A06FFCF80EF91E00E947A066CE533
:101A700087EC94E00E94CC08811105C086E092E0DA
:101A80000E947A06FFCF88E292E00E947A066DE516
:101A900085EC94E00E94CC08811105C08EE392E0B1
:101AA0000E947A06FFCF80E692E00E947A06EE243A
:101AB000E394F12CF0E0CF2EF0E0DF2E8BEC94E0FD
:101AC0000E94BD099093F3028093F20289EC94E0A6
:101AD0000E94BD099093F1028093F00287EC94E09C
:101AE0000E94BD099093EF028093EE0285EC94E092
:101AF0000E94BD099093ED028093EC02D0E0C0E01B
:101B000087010C2E02C0000F111F0A94E2F780918A
:101B1000F2029091F30280239123892B91F080911E
:101B2000EA029091EB0280239123892B51F4FE016C
:101B3000EE0FFF1FE25BFE4F41E06FE780810E94E6
:101B400057068091F2029091F30280239123892B12
:101B500091F48091EA029091EB0208231923012B62
:101B600051F0FE01EE0FFF1FE25BFE4F41E060E02F
:101B700080810E9457062196CC30D10509F68091CC
:101B8000F2029091F3029093EB028093EA02D0E08C
:101B9000C0E087010C2E02C0000F111F0A94E2F76B
:101BA0008091F0029091F10280239123892B91F092
:101BB0008091E8029091E90280239123892B51F4CE
:101BC000FE01EE0FFF1FEA5CFE4F41E06FE78081F0
:101BD0000E9457068091F0029091F1028023912398
:101BE000892B91F48091E8029091E902082319234E
:101BF000012B51F0FE01EE0FFF1FEA5CFE4F41E0AA
:101C000060E080810E9457062196CC30D10509F60C
:101C1000D0E0C0E087010C2E02C0000F111F0A9413
:101C2000E2F78091EE029091EF0280239123892BBD
:101C300091F08091E6029091E70280239123892B15
:101C400051F4FE01EE0FFF1FE25EFE4F41E06FE731
:101C500080810E9457068091EE029091EF028023CE
:101C60009123892B91F48091E6029091E702082359
:101C70001923012B51F0FE01EE0FFF1FE25EFE4F14
:101C800041E060E080810E9457062196CC30D1056A
:101C900009F6D0E0C0E087010C2E02C0000F111F32
:101CA0000A94E2F78091EC029091ED028023912357
:101CB000892B91F08091E4029091E5028023912399
:101CC000892B51F4FE01EE0FFF1FEA5FFE4F41E04A
:101CD0006FE780810E9457068091EC029091ED029F
:101CE00080239123892B91F48091E4029091E50265
:101CF00008231923012B51F0FE01EE0FFF1FEA5FAD
:101D0000FE4F41E060E080810E9457062196CC3072
:101D1000D10509F68091F2029091F3029093EB02C3
:101D20008093EA028091F0029091F1029093E9028F
:101D30008093E8028091EE029091EF029093E70287
:101D40008093E6028091EC029091ED029093E5027F
:101D50008093E402C114D10409F4B0CE0E94EE00D5
:101D6000882309F4ABCE0E940000A8CEA1E21A2E6F
:101D7000AA1BBB1BFD010DC0AA1FBB1FEE1FFF1F2F
:101D8000A217B307E407F50720F0A21BB30BE40B7F
:101D9000F50B661F771F881F991F1A9469F76095C6
:101DA0007095809590959B01AC01BD01CF01089580
:101DB000EE0FFF1F0590F491E02D09940F931F93F0
:101DC000CF93DF938230910510F482E090E0E091B0
:101DD000CF04F091D00430E020E0B0E0A0E03097F4
:101DE00099F42115310509F44AC0281B390B243018
:101DF0003105D8F58A819B816115710589F1FB0157
:101E000093838283FE0111C040815181028113813D
:101E100048175907E0F04817590799F4109761F0EF
:101E200012960C93129713961C933296CF01DF9162
:101E3000CF911F910F9108950093CF041093D00478
:101E4000F4CF2115310551F04217530738F0A9019D
:101E5000DB019A01BD01DF01F801C1CFEF01F9CF2C
:101E60009093D0048093CF04CDCFFE01E20FF31FF7
:101E7000819391932250310939832883D7CF2091C0
:101E8000CD043091CE04232B41F4209102013091F6
:101E900003013093CE042093CD04209100013091B2
:101EA00001012115310541F42DB73EB740910401E0
:101EB00050910501241B350BE091CD04F091CE0427
:101EC000E217F307A0F42E1B3F0B2817390778F011
:101ED000AC014E5F5F4F2417350748F04E0F5F1F70
:101EE0005093CE044093CD04819391939FCFF0E023
:101EF000E0E09CCFCF93DF930097E9F0FC013297AD
:101F000013821282A091CF04B091D004ED0130E091
:101F100020E01097A1F420813181820F931F20913E
:101F2000CD043091CE042817390709F061C0F09331
:101F3000CE04E093CD04DF91CF910895EA01CE174E
:101F4000DF07E8F54A815B819E0141155105B1F734
:101F5000E901FB83EA8349915991C40FD51FEC171E
:101F6000FD0761F4808191810296840F951FE9013C
:101F700099838883828193819B838A83F0E0E0E068
:101F800012968D919C9113970097B9F52D913C91E4
:101F90001197CD010296820F931F2091CD043091AD
:101FA000CE042817390739F6309751F51092D0042E
:101FB0001092CF04B093CE04A093CD04BCCFD383B2
:101FC000C28340815181840F951FC817D90761F4DE
:101FD0004E5F5F4F88819981480F591F518340831D
:101FE0008A819B81938382832115310509F0B0CFCB
:101FF000F093D004E093CF049ECFFD01DC01C0CF6D
:0A20000013821282D7CFF894FFCFAD
:10200A000000D10480005A005B005C005D005E00A5
:10201A005F006000610062006300640065004600C2
:10202A004700480049004A004B004C004D004E0052
:10203A004F0050005100280029002A002B002C00D4
:10204A002D002E002F0030003100320033000A002C
:10205A000B000C000D000E000F0010001100120002
:10206A001300140015000000000024018400B100D0
:10207A007101E200C000D400000000001B06EE055A
:10208A004A06C405E705D405C5050D0A003F3F3FCA
:10209A003F3F3F3F004D50523132312031206E6F69
:1020AA007420666F756E642C20636865636B207795
:1020BA006972696E673F004D505231323120626F4A
:1020CA00617264203120666F756E642021004D5064
:1020DA00523132312032206E6F7420666F756E6411
:1020EA002C20636865636B20776972696E673F00AD
:1020FA004D505231323120626F6172642032206653
:10210A006F756E6421004D50523132312033206E8A
:10211A006F7420666F756E642C20636865636B202C
:10212A00776972696E673F004D50523132312062D1
:10213A006F617264203320666F756E6421004D50A2
:10214A00523132312034206E6F7420666F756E649E
:10215A002C20636865636B20776972696E673F003C
:10216A004D505231323120626F61726420342066E0
:06217A006F756E64210088
:00000001FF
